:020000022000DC
:10300000000001203DF3020065F3020067F30200B7
:1030100069F302006BF302006DF302000000000090
:103020000000000000000000000000006FF302003C
:1030300071F302000000000073F3020075F3020058
:103040005D68020077F3020029830200E57C02003C
:1030500077F3020077F30200116D020077F30200AC
:10306000E185020077F3020077F3020077F30200B4
:1030700077F3020077F3020077F3020077F30200A0
:1030800077F30200AD52020077F3020077F30200FB
:10309000ED52020077F3020045FD020077F30200D3
:1030A00077F3020077F3020077F3020077F3020070
:1030B0009184020077F3020000000000000000008D
:1030C00077F3020077F3020077F3020077F3020050
:1030D00077F3020077F3020077F3020000000000AC
:1030E00000000000000000000000000000000000E0
:1030F00000000000000000000000000000000000D0
:1031000000000000000000000000000000000000BF
:1031100000000000000000000000000000000000AF
:10312000000000000000000000000000000000009F
:10313000000000000000000000000000000000008F
:10314000000000000000000000000000000000007F
:10315000000000000000000000000000000000006F
:10316000000000000000000000000000000000005F
:10317000000000000000000000000000000000004F
:10318000000000000000000000000000000000003F
:10319000000000000000000000000000000000002F
:1031A000000000000000000000000000000000001F
:1031B000000000000000000000000000000000000F
:1031C00000000000000000000000000000000000FF
:1031D00000000000000000000000000000000000EF
:1031E00000000000000000000000000000000000DF
:1031F00000000000000000000000000000000000CF
:1032000010B5054C237833B9044B13B10448AFF320
:1032100000800123237010BDA824002000000000BE
:10322000705203000C4B43B10C480D4910B5AFF37D
:1032300000800C48036823B910BD0A48036833B9FD
:103240007047094B002BF7D0BDE810401847064BDC
:10325000002BF5D0184700BF00000000705203009B
:10326000AC2400200824002000000000154B002B97
:1032700008BF134B9D46A3F5803A00218B460F46AD
:103280001348144A121A0CF0CCFF0F4B002B00D03D
:1032900098470E4B002B00D09847002000210400D7
:1032A0000D000D48002802D00C48AFF300800CF050
:1032B00069FF200029000AF037FA0CF04FFF00BF29
:1032C00000000800000001200000000000000000D5
:1032D000A82400208033002000000000000000002F
:1032E00080B500AF0AF0EDFB00BF80BD80B588B0AF
:1032F00000AFF860B9607A607B68002B22D00023B1
:10330000FB610A23BB61BA68FB6913447A681946FA
:1033100000200AF051FB7861FA697B691344FB6174
:103320007A687B69D31A7B607B69002B05D1BB6906
:10333000013BBB61BB69002B03D07B68002BE2D152
:1033400000E000BF00BF2037BD4680BD80B584B01F
:1033500002AF78603960064B00934023054A396814
:10336000786800F01DF800BF0837BD4680BD00BF7B
:10337000ED320200C424002080B483B000AF786036
:1033800000BF0C37BD465DF8047B704780B483B046
:1033900000AF786000BF0C37BD465DF8047B704716
:1033A00080B5A0B002AFF860B9607A603B60B868E1
:1033B00002F03DFE7B68FB643B683B6500237B6558
:1033C000002387F858300023FB65D7F880303B6630
:1033D00000237B6707F134017B6F0822B86802F095
:1033E000D9FE08237B67FB6B3B64BB6B9BB2A7F8E2
:1033F0004430002387F8483097F8343003F0030353
:10340000DBB2012B35D17B6BC3F39523FB6697F8B9
:103410003430C3F3C203DBB287F8463097F8343058
:10342000C3F38003DBB2002B14BF01230023DBB204
:1034300087F84730BB8EC3F38313DBB2BB66BB6E2A
:103440009A0007F11C017B6FB86802F0A3FEBB6E07
:103450009B007A6F13447B6707F1400207F11C0160
:1034600007F14C0300931346BA6EF86E00F07CFE31
:103470003EE097F8343003F00303DBB2022B37D180
:10348000FB8EC3F389139BB23B6797F83430C3F3C9
:10349000C203DBB287F8463097F83430C3F38003B9
:1034A000DBB2002B14BF01230023DBB287F84730C7
:1034B0003B6F082B28BF08237B6607F114017B6F45
:1034C0007A6EB86802F066FE7A6F7B6E13447B6793
:1034D0003A6F7B6ED31A3B6707F14C0307F140024A
:1034E00007F11400796E00F0E1FE3B6F002BDFD195
:1034F000B86802F0ACFD00BF7837BD4680BD80B42F
:1035000083B000AF78607B6801225A7200BF0C372D
:10351000BD465DF8047B704780B582B000AF4FF0C8
:10352000FF337B60FFF7DCFE0421054800F032FD2D
:1035300078600348FFF7E3FF00BF0837BD4680BD52
:103540008021002080B582B000AF786039607B6850
:103550001B681B6839687868984700BF0837BD4604
:1035600080BD80B582B000AF78607B681B685B6807
:103570007868984700BF0837BD4680BD80B483B0E7
:1035800000AF78600B46FB707B68FA781A7200BF58
:103590000C37BD465DF8047B704780B483B000AF44
:1035A00078607B681B7A18460C37BD465DF8047B53
:1035B000704780B483B000AF78607B6801225A7294
:1035C00000BF0C37BD465DF8047B704780B483B004
:1035D00000AF78607B685B7A18460C37BD465DF8B3
:1035E000047B704790B486B000AF786039607B6828
:1035F0003A6853E8004F44EA020043E8000191F0C2
:10360000000FF6D17C613861F9603B6918461837C4
:10361000BD4690BC704790B486B000AF786039600A
:103620007B683A6853E8004F04EA020043E800016F
:1036300091F0000FF6D17C613861F9607B69184622
:103640001837BD4690BC704780B582B000AF786037
:1036500001217868FFF7C6FF034618460837BD46C4
:1036600080BD80B582B000AF786000217868FFF738
:10367000D2FF034618460837BD4680BD80B586B0E8
:1036800000AF78601F4BFF229A601E4B00221A6029
:103690001C4B00225A601B4B0022C3F81824194B04
:1036A0000022C3F81424174B002283F81C24164868
:1036B00002F024FC38613B69002B01D03B691CE01F
:1036C000124A134BD31ADB08FB6000237B610FE027
:1036D0007A6913465B0013449B001A460D4B134452
:1036E000BB607B699AB2BB681A807B6901337B61DE
:1036F0007A69FB689A42EBD3002318461837BD4617
:1037000080BD00BFD4250020B0430300DC5203007D
:10371000745203000C24002080B400AF044A054B0F
:10372000D31ADB081846BD465DF8047B704700BF1E
:10373000DC5203007452030080B586B000AF78609D
:103740000B46FB70FFF7E8FF3861FB78002B20D0B9
:1037500000237B6117E07A6913465B0013449B00EA
:103760001A460E4B1344FB60FB685B881A467B6865
:103770001B689A4204D17B687A691A60002309E0C9
:103780007B6901337B617A693B699A42E3D3052304
:1037900000E0002318461837BD4680BD0C240020E9
:1037A00080B584B000AF78600B46FB70FA783B1DA3
:1037B00011461846FFF7C0FF0346002B07D17B6870
:1037C000DB00054A1344FB60FB681B6800E0002334
:1037D00018461037BD4680BD7452030080B485B0D2
:1037E00000AF78600B46FB707B68DB00144A134423
:1037F000BB60FB78013B032B18D801A252F823F0E1
:1038000011380200173802001D3802002538020066
:103810000023FB730DE00023FB730AE0BB681B79F8
:10382000FB7306E0BB685B79FB7302E00023FB736C
:1038300000BFFB7B18461437BD465DF8047B70471C
:103840007452030080B485B000AFF860B9601346CD
:10385000FB7100BF1437BD465DF8047B7047000064
:1038600080B586B000AFF860B96011461A460B46C5
:10387000FB711346BB710023FB75BB7983F0010319
:10388000DBB2002B11D0FA7907F108031146184674
:10389000FFF752FF0346002B07D1BB68DB00054A48
:1038A00013443B613B699B79FB75FB7D18461837D8
:1038B000BD4680BD7452030080B588B000AF3D4B5B
:1038C0005B68FB613B4B9B683B61FA693B6913405A
:1038D00002339B00374A13440433BB613648FFF779
:1038E000B3FE3648FFF7B0FE1BE0FB690133FB6116
:1038F000BB695B88C3F389139BB21A46BB691B88FB
:10390000C3F389139BB213441A46FB691344FB614A
:10391000FA693B69134002339B00264A134404337F
:10392000BB61BB691B7803F00303DBB2002BDCD067
:1039300000237B6111E07B699B003A461A44FB69D6
:10394000591CF96139690B401A4902339B000B4439
:103950005B6813607B6901337B617B69012BEAD96A
:103960003B7803F00303DBB2022B0DD17B88C3F35A
:1039700089139BB20333002B00DA03339B101A46E2
:10398000FB691344FB6107E03B88C3F38313DBB29D
:103990001A46FB691344FB610848FFF762FEF860B2
:1039A000FB68002B02D0034AFB69536000BF20373D
:1039B000BD4680BDD4250020EC290020E829002048
:1039C00080B487B000AFF860B9607A603B603B6854
:1039D0005A1C3A603A6A134002339B00224A13444D
:1039E00004337B617A691378012161F30103137059
:1039F000FB6803F01003002B14BF01230023D9B28E
:103A00007A69137861F382031370FB68DBB203F009
:103A10000703D9B27A69137861F3C50313707B6821
:103A2000DBB203F00F03D9B27A69138861F389130B
:103A30001380BB68C3F315017A69136861F39F2390
:103A400013603B685A1C3A603A6A1340FA68120CD9
:103A5000054902339B000B445A603B6818461C37EB
:103A6000BD465DF8047B7047D425002080B588B042
:103A700000AF786039607B680233BB6102237B61F1
:103A80000123FB740023FB7207F10B03184601F0BE
:103A90006FFD194B1A683B681A60174B9A68164BF2
:103AA0005968154B1B68CB1A13440133FB61BA6983
:103AB0007B691344FB600BE0FFF7FEFE0E4B9A6838
:103AC0000D4B59680C4B1B68CB1A13440133FB6137
:103AD000FA68FB699A42EFD8074B1A68BB6913442E
:103AE000054A1360FB7A184601F04DFDFB7C184631
:103AF0002037BD4680BD00BFD425002080B58AB0E8
:103B000002AFF860B9607A603B601D4B9B68BB6197
:103B10001B4B93F81C34002B2DD107F114031946CD
:103B20003868FFF7A3FF0346002B25D07A69BB69ED
:103B3000009313463A68B968F868FFF741FF0346F7
:103B40007B610023FB6111E07B695A1C7A61BA69D1
:103B50001340FA69920079680A44126808490233EE
:103B60009B000B445A60FB690133FB61FA693B68B7
:103B70009A42E9D300E000BF2037BD4680BD00BFB8
:103B8000D425002080B582B000AF78603960002372
:103B9000002239687868FFF7B1FF00BF0837BD46DB
:103BA00080BD80B586B000AFF860B9607A607B6890
:103BB0007B6107F114020123B968F868FFF79EFFE3
:103BC00000BF1837BD4680BD80B586B000AFF86035
:103BD000B9607A603B607B683B613B687B6107F161
:103BE00010020223B968F868FFF788FF00BF183792
:103BF000BD4680BD80B400AF064B5A68054B1B68BC
:103C00009A420CBF01230023DBB21846BD465DF883
:103C1000047B7047D425002080B598B000AFFFF733
:103C2000E9FF0346002B01D000237AE1A44B0022D8
:103C3000C3F81424A24B5B68FB65A14B9B683B64F3
:103C4000FA6D3B6C134002339B009D4A13440433CE
:103C5000BB6500233B651BE0FB6D0133FB65BB6D62
:103C60005B88C3F389139BB21A46BB6D1B88C3F3F1
:103C700089139BB213441A46FB6D1344FB65FA6D1E
:103C80003B6C134002339B008D4A13440433BB65E5
:103C9000BB6D1B7803F00303DBB2002BDCD00023E9
:103CA000FB6411E0FB6C9B003A1D1A44FB6D591C30
:103CB000F965396C0B40824902339B000B445B6809
:103CC0001360FB6C0133FB64FB6C012BEAD93B797D
:103CD00003F00303DBB2022B40F09580FB88C3F3B3
:103CE00089139BB2FB63FB88C3F389139BB2502BF0
:103CF000A8BF5023BB63BB6B9BB2C3F309039AB24B
:103D0000FB8862F38F13FB80BB6B08337B633B79CB
:103D1000C3F3C203DBB23B63796B6A4802F0FAF883
:103D200078657B6D002B00F0BE80786D02F07FF926
:103D3000391D3B6D0822786D02F019FA3B6D08338E
:103D40003B65FB6DDA433B6C134001339B00FB6228
:103D5000BA6BFB6A9A4240D9FB6A002B08D0FA6D15
:103D60003B6C134002339B00554A1344043300E07C
:103D7000554BBB62FB6A002B02D0FB6ADBB201E051
:103D8000BB6BDBB287F82730FB6A002B01D04E4BB0
:103D900000E000233B62FB6A002B06D0BB6BDAB26B
:103DA000FB6ADBB2D31ADBB200E00023FB7797F8A3
:103DB00027203B6DB96A786D02F0D9F997F8273062
:103DC0003A6D13443B653B6A002B15D0FA7F3B6D7F
:103DD000396A786D02F0CBF90EE0FA6D3B6C134056
:103DE00002339B00364A13440433BB613B6DBA6B0C
:103DF000B969786D02F0BBF9FB6B03339B08FA6D70
:103E00001344FB654FE0BB88C3F38313DBB2062B7F
:103E100028BF0623DBB203F00F03DAB2BB8862F3DC
:103E20008913BB80BB88C3F38313DBB202337B618E
:103E30003B79C3F3C203DBB23B637B699B0019464A
:103E4000204802F067F878657B6D002B2BD0786DE9
:103E500002F0EDF8391D3B6D0822786D02F087F90C
:103E60003B6D08333B650023FB6414E0FB6D5A1C7B
:103E7000FA653A6C134002339B00114A1344191D32
:103E80003B6D0422786D02F072F93B6D04333B65A3
:103E9000FB6C0133FB64BB88C3F38313DBB21A46AC
:103EA000FB6C9A42E2D87B6D002B34D00748FFF7B9
:103EB000D8FB3861024BD3F81034BB641FE000BF5D
:103EC000D4250020B0430300E0250020E82900208D
:103ED000002387F84730B86CFFF778FB0346002BC8
:103EE00002D0012387F8473097F84730002B03D0E2
:103EF000796DB86CFFF726FBBB6C5B68BB64BB6C71
:103F0000002B02D03B69002BE2D0786D02F09FF8C5
:103F1000064AFB6D5360FFF76DFE034683F0010315
:103F2000DBB218466037BD4680BD00BFD4250020F7
:103F300080B584B000AF0023FB601FE0144BD3F8C2
:103F40001034BB600123FB710DE0B868FFF725FB5F
:103F500003461A46FB689A4202D10023FB7105E032
:103F6000BB685B68BB60BB68002BEED1FB79002BA4
:103F700001D0FB6807E0FB680133FB60FB68092B9D
:103F8000DCDD4FF0FF3318461037BD4680BD00BF63
:103F9000D425002080B586B000AF78600B46FB705A
:103FA000FFF7C6FF38613B69B3F1FF3F01D13B69C1
:103FB00042E03B69DBB219467868FFF7DFFA204B35
:103FC000D3F81034002B07D11D4A7B68C2F8103497
:103FD0007B6800225A600AE0194BD3F810345A6803
:103FE0007B685A60164BD3F810347A685A60002305
:103FF0007B611AE03869002300227969FFF730FC01
:104000000346FB73FA78FB7B934228BF1346BB73CE
:104010007868FFF7C2FA03461846BB7B1A467969EF
:10402000FFF710FC7B6901337B61FFF775FB0246EC
:104030007B699A42DED83B6918461837BD4680BD79
:10404000D425002080B582B000AF0C4BD3F81034DB
:104050007B600A4B012283F81C2408E07868FFF794
:10406000A8FA7868FFF77DFA7B685B687B607B68FD
:10407000002BF3D100BF0837BD4680BDD4250020FA
:1040800090B583B000AF786039607B68DB7983F0EE
:104090000103DBB2002B28D07B681B7A002B12D0E7
:1040A0007B689B881A467B689B7919461046FFF708
:1040B00095FB03461A460F4B53F822301A460E4919
:1040C000386801F037FB7B689B791A460B4B53F835
:1040D00022407B689B8800211846FFF761FB03465E
:1040E00022460749386801F025FB00BF0C37BD4662
:1040F00090BD00BFA02100203C4403008C21002083
:104100004044030080B584B000AFF860B960134646
:10411000FB71FB68DB7983F00103DBB2002B0FD06E
:10412000FB681B7A002B06D00C4B1B681A460C4907
:10413000B86801F0FFFA0B49B86801F0FBFA06E035
:10414000FB79002B03D00749B86801F0F3FAB8688F
:1041500001F0D7FA00BF1037BD4680BDA021002076
:104160003C4403004C440300B0B58AB004AFF8608F
:10417000B9607A603B60BB6A1B7BFB75BB6A00223F
:104180001A73B96A3868FFF77BFF7B68062B7FD804
:1041900001A252F823F000BFB5410200BF41020066
:1041A000CF410200E3410200014202002942020025
:1041B00059420200F968B86A01F0BCFA69E0BB68CC
:1041C0001B681A46F968B86A01F0B4FA61E0BB6886
:1041D0001A68BB6804331B68F968B86A01F0AAFA68
:1041E00057E0BB681A68BB6804331968BB680833BA
:1041F0001B6800930B46F968B86A01F09BFA48E027
:10420000BB681968BB6804331868BB6808331B684F
:10421000BA680C3212680192009303460A46F968A4
:10422000B86A01F087FA34E0BB681868BB680433E9
:104230001C68BB6808331B68BA680C321268B9681E
:104240001031096802910192009323460246F968F1
:10425000B86A01F06FFA1CE0BB681C68BB680433E5
:104260001D68BB6808331B68BA680C321268B968ED
:1042700010310968B8681430006803900291019207
:1042800000932B462246F968B86A01F053FA00E021
:1042900000BF0022B96A3868FFF734FFBB6AFA7DB5
:1042A0001A7300BF1837BD46B0BD00BF80B586B0D9
:1042B00000AFF860B9607A603B60BB68082B5BD8E0
:1042C0003B681B7BFB743B6800221A733968786873
:1042D000FFF7D6FE00237B6114E07A69BB689A423F
:1042E00009D2FA687B6913441B781A462449386856
:1042F00001F020FA03E02349386801F01BFA7B69DA
:1043000001337B617B69072BE7D91F49386801F0CE
:1043100011FA00237B6123E07A69BB689A4218D2C4
:10432000FA687B6913441B78BB740BF04FFF02469D
:10433000BB7C013313441B7803F09703002B01D09F
:10434000BB7C00E02E231A461049386801F0F2F9D0
:1043500003E00F49386801F0EDF97B6901337B61B7
:104360007B69072BD8D9012239687868FFF7CAFE24
:104370003B68FA7C1A7300E000BF1837BD4680BD69
:1043800050440300584403005C44030060440300AD
:104390006444030080B588B000AFF860B9607A600B
:1043A000BB689BB2BB827B68BB61FB68FB6107F1AA
:1043B00014031A46002144F2010000F053F800BF34
:1043C0002037BD4680BD000080B487B000AFF860E4
:1043D000B9607A600123FB75FB7D214AFB6813609D
:1043E0001F4ABB6853601E4A7B689360FB6844F2B7
:1043F0000102934212D044F20202934222D17B681E
:10440000174AD360164BDB681B881A46144B9A6117
:10441000134BDB685B68124AD36113E07B68104A78
:1044200013610F4B1B699B680D4A53610C4B1B6951
:104430001B881A460A4B9A61094B1B695B68084A3C
:10444000D36100BF72B600BFFB7DDBB2002BFBD196
:1044500062B600BF1C37BD465DF8047B704700BFE5
:10446000F429002080B584B000AFF860B9607A60AC
:10447000104B1B881B0443F001030F491846FFF73C
:1044800081FBFFF7DFFD00BFFFF7C6FB0346002BF4
:10449000FAD10A4B1B6803F00103002B00D0FFDEAA
:1044A0007A68B968F868FFF78FFF00BF1037BD461C
:1044B00080BD00BF0C24002068440300F0ED00E044
:1044C00080B483B000AF78607B6803F00303002BF7
:1044D0000CBF01230023DBB218460C37BD465DF844
:1044E000047B704780B483B000AF0346FB71FB7957
:1044F0009AB2074B1B889A4203D2FB790133DBB295
:1045000000E0002318460C37BD465DF8047B704779
:10451000202A002080B582B000AF0A4B1B78FB71C7
:10452000094B1B78DBB21846FFF7DCFF03461A463F
:10453000FB7993420CBF01230023DBB218460837F6
:10454000BD4680BD1C2A00201D2A002080B483B0F7
:1045500000AF094B1B78FB71084B1B78DBB2FA7973
:104560009A420CBF01230023DBB218460C37BD462C
:104570005DF8047B704700BF1C2A00201D2A002024
:1045800080B584B000AF03463A60FB800B46BB8029
:10459000BB8801339BB2DB00FB813868FFF790FFDB
:1045A000034683F00103DBB2002B01D0072314E0A4
:1045B0000C4A3B681360FB893A6813440A4A13604B
:1045C0000A4B00221A700A4B00221A70094AFB8813
:1045D0001380094ABB881380002318461037BD4654
:1045E00080BD00BF142A0020182A00201D2A0020A8
:1045F0001C2A00201E2A0020202A002080B586B018
:1046000000AFF8600B467A607B81304B1B887A895B
:104610009A4254D84FF6FF737B8200237B7407F1D4
:104620001103184600F0A4FFFFF774FF0346002BA8
:104630000DD1274B1B78DBB27B82254B1B78DBB27D
:104640001846FFF74FFF03461A46214B1A707B7C32
:10465000184600F098FF7B8A4FF6FF7293422BD0EA
:104660001C4B1A687B8ADB0013447A681A60FB686B
:10467000002B17D07B89002B14D0174B1B687A8A2C
:104680001249098801FB02F213447A89F968184635
:104690000BF0BCFD0F4B1A687B8ADB0013447A8950
:1046A0009A8006E00B4B1A687B8ADB0013440022D9
:1046B0009A8000237B6104E004237B6101E00923ED
:1046C0007B617B6918461837BD4680BD1E2A0020D5
:1046D0001D2A0020142A0020182A002080B400AFD0
:1046E00000231846BD465DF8047B704780B584B052
:1046F00000AF29E01D4B1B78DBB2FB811C4B1B6814
:10470000FA891C49098801FB02F21344BB601A4B69
:104710001A68FB89DB0013449B88FB80164B1A68E0
:10472000FB89DB0013441B683B60FA883B68114639
:10473000B86898470D4B1B78DBB21846FFF7D2FEDE
:1047400003461A46094B1A70FFF7C8FF034683F069
:104750000103DBB2002B04D0FFF7F8FE0346002B69
:10476000C8D000BF1037BD4680BD00BF1C2A002046
:10477000182A00201E2A0020142A002080B483B0AA
:1047800000AF0346FB71094997F907305B09FA79D5
:1047900002F01F02012000FA02F241F8232000BFBC
:1047A0000C37BD465DF8047B704700BF00E100E0B8
:1047B00080B483B000AF0346FB71094997F9073015
:1047C0005B09FA7902F01F02012000FA02F220339D
:1047D00041F8232000BF0C37BD465DF8047B7047CD
:1047E00000E100E080B483B000AF0346FB710949EB
:1047F00097F907305B09FA7902F01F02012000FAED
:1048000002F2403341F8232000BF0C37BD465DF86B
:10481000047B704700E100E080B483B000AF034642
:10482000FB71094997F907305B09FA7902F01F0219
:10483000012000FA02F2603341F8232000BF0C3758
:10484000BD465DF8047B704700E100E080B483B0B2
:1048500000AF03463960FB7197F90730002B0BDA84
:104860000D49FB7903F00F03043B3A68D2B25201C1
:10487000D2B20B441A7609E0084997F907303A6832
:10488000D2B25201D2B20B4483F8002300BF0C37DE
:10489000BD465DF8047B704700ED00E000E100E0FC
:1048A00080B485B000AF7860254BFB607B68002B3F
:1048B00040D0244B1A68F9687B6800BF00BF00BF76
:1048C00000BF00BF00BF00BF00BF8A422FD000BFA3
:1048D00000BF00BF00BF00BF00BF00BF00BF00BFE0
:1048E00000BF00BF00BF00BF00BF00BF00BF00BFD0
:1048F00000BF00BF00BF00BF00BF00BF00BF00BFC0
:1049000000BF00BF00BF00BF00BF00BF00BF00BFAF
:1049100000BF00BF00BF00BF00BF00BF00BF00BF9F
:1049200000BF00BF00BF00BF00BF00BF00BF013B12
:10493000C3D17B6000BF1437BD465DF8047B704770
:104940000024F4002822002080B582B000AF7860F7
:10495000054A7B68C2F8083507211120FFF776FF6A
:1049600000BF0837BD4680BD0010014080B500AFD4
:104970000D4B4FF48032C3F844230B4B4FF480327D
:10498000C3F804231120FFF747FF1120FFF7F6FEBD
:10499000054B01221A602F20FFF782FF034B0122F3
:1049A0001A7000BF80BD00BF00100140422B0020E4
:1049B00080B500AF1120FFF7FBFE0F4B4FF48032A4
:1049C000C3F848230C4B4FF48032C3F808230A4B3A
:1049D00001225A602F20FFF763FF074B01229A60E4
:1049E000064B00221A602F20FFF75AFF044B0022CB
:1049F0001A7000BF80BD00BF00100140342B0020A2
:104A0000422B002080B400AF034BD3F80435184686
:104A1000BD465DF8047B70470010014080B483B050
:104A200000AF786039607A683B68D31A23F07F431F
:104A300018460C37BD465DF8047B704780B483B0E0
:104A400000AF7860044A7B68C2F8403500BF0C377D
:104A5000BD465DF8047B70470010014080B487B00C
:104A600000AF7860294B1B68002B03D1274A7B6875
:104A7000136045E07B681A68244B1B681B689A42E8
:104A800010D8224B1B68214A126811687A68126894
:104A90008A1A1A601D4B1A687B68DA611B4A7B68A8
:104AA00013602DE07B681B68FB60184B1B687B6103
:104AB000164B1B683B6109E03B691B68FA68D31A17
:104AC000FB603B697B613B69DB693B613B69002BB8
:104AD00004D03B691A68FB689A42EDD33B69002B0E
:104AE00005D03B691A68FB68D21A3B691A607B687B
:104AF000FA681A607B683A69DA617B697A68DA6118
:104B000000BF1C37BD465DF8047B7047302B00208A
:104B100080B586B000AF7860294B1B68FB60284BDE
:104B20001B687B617B693B6108E03A697B689A425C
:104B300008D03B697B613B69DB693B613B69002BCA
:104B4000F3D100E000BF3B69002B01D1002333E02B
:104B50007A693B699A4214D1194B1B68DB69184A80
:104B60001360174B1B68002B0BD1164B01229A6068
:104B7000154B00221A60154B01221A702F20FFF7E7
:104B80008FFE3B691B68BB603B69DA697B69DA6150
:104B90007B69DB693B613B69002B05D03B691A6887
:104BA000BB681A443B691A60054B1B68FA689A4255
:104BB00014BF01230023DBB218461837BD4680BD61
:104BC000302B002000100140342B0020432B00200C
:104BD00080B500AF1120FFF705FE00BF80BD80B596
:104BE00000AF1420FFF7FEFD00BF80BD80B584B08C
:104BF00000AF78600B467B807B88082B0CBF0123BD
:104C00000023DBB2FB60FB68002B05D1084A4FF4A0
:104C1000B7710020FFF7BEFB7B68BB60BB681B68F9
:104C2000BA6852681046984700BF1037BD4680BD2D
:104C30007044030080B586B000AF78607B685B6924
:104C4000BB607B689B69FB6007F108030A4A082187
:104C50001846FFF7D3FC78617B693B613B69002B09
:104C600005D0064A4FF4C1713869FFF793FB00BFC6
:104C70001837BD4680BD00BFED4B020070440300F5
:104C800080B584B000AF2B4B1B68002B4ED00023A7
:104C90007B60FFF7B7FE0246274B1B68194610469C
:104CA000FFF7BCFEB860234B1B68FB601DE0FB6890
:104CB0001A68BB689A421CD8FB681B68BA68D31A8A
:104CC000BB60FB681B687A6813447B60FB683B60D1
:104CD000FB68DB69FB603B681B7C002B05D03B68F5
:104CE00000221A743868FFF7A5FFFB68002BDED19D
:104CF00000E000BF114B1A78114B1B789A420CD17F
:104D00000F4B1B780133DAB20D4B1A700C4B1B782A
:104D1000022B02D10A4B00221A70094B1B7819464C
:104D2000084A7B6842F82130FFF759FF00BF10376F
:104D3000BD4680BD302B0020342B0020402B0020AE
:104D4000412B0020382B002080B483B000AF786066
:104D5000194B1A78194B1B789A4223D0164B1B78A3
:104D60000133DAB2144B1A70134B1B78022B02D1A9
:104D7000114B00221A70104B1B781A46104B53F837
:104D800022207B681A607B681A680E4B1B681344EC
:104D90000C4A13600B4B1B6823F07F43094A1360D6
:104DA000012303E07B6800221A60002318460C37B9
:104DB000BD465DF8047B7047402B0020412B00204E
:104DC000382B0020342B002080B489B000AFF8606D
:104DD000B9607A600023FB6138E0214B1B68BB613E
:104DE000BB691A68FB689A4206D9BB691A68FB68F6
:104DF000D21ABB691A602DE0BB691B68FA68D31A26
:104E0000FB60BB691B68FA691344FB61BB69002244
:104E10001A60134B1B687B61BB69DB69104A136026
:104E2000BB69DB68002B11D0BA68FB69134423F01F
:104E30007F42BB695A60BB69DA68BB699A607B686C
:104E40001A68BB69DA617B687A691A60044B1B686F
:104E5000002BC2D100BF2437BD465DF8047B7047EC
:104E6000302B002080B588B000AF78600023FB773E
:104E7000654B1B687B61A9E07B68002B05D07B68D4
:104E8000BB61BB69DB697B6060E0604B1B781A46E5
:104E900013465B001344DB005C4A134404333B615C
:104EA0005A4B1B780133DAB2584B1A70574B1A78A9
:104EB000564B9B789A4202D1544B00221A703B69A0
:104EC0005B68BB613B691B78022B04D0032B1AD0B3
:104ED000012B1ED01CE03B695B681846FFF718FEEB
:104EE0000346002B01D00123FB77BB6900221A7413
:104EF0006CE0454B1B68FB60FB6800221A74FB6882
:104F0000DB69414A1360404B1B68002BF1D15DE027
:104F10005CE000BFBB691B7C002B00D056E03B6906
:104F20009A68BB695A603B69DA68BB699A603B69F9
:104F30001A69BB69DA603B695A69BB699A61344B8B
:104F40001B78002B02D0BB6900225A60BB695A68EB
:104F5000304B1B68D31A23F07F432F4A93420ED85D
:104F6000BB695A682B4B1B6819461046FFF756FD64
:104F70000246BB699B681A44BB691A6017E0254B5F
:104F80001A68BB695B6819461046FFF747FDB860B1
:104F9000BB699A68BB689A4206D9BB699A68BB68C4
:104FA000D21ABB691A6002E0BB6900221A60BB69B1
:104FB00000225A60BB6900229A60BB6901221A7400
:104FC000BB690022DA61B869FFF748FD7B68002BF6
:104FD0007FF452AF0D4B1A780C4B5B789A427FF4FA
:104FE0004BAFFB7F002B04D1074B1A687B699A42B9
:104FF00001D0012300E0002303F00103DBB21846D7
:105000002037BD4680BD00BF302B0020242A002061
:10501000432B0020342B0020FEFF7F0090B589B089
:1050200000AF7860274B1B68002B44D0254B1B68D2
:105030001B68FB61FFF7E6FCB861234B1B687B61D3
:105040007969B869FFF7EAFC034603333B611F4BFC
:105050001B7883F00103DBB2002B01D0FFF786FC45
:105060003A69FB69934238BF13467A6913447B61FE
:105070007B6923F07F437B617869FFF7DFFCFFF7F3
:10508000C1FCF860B969F868FFF7C8FC0346DC1C8E
:10509000B9697869FFF7C2FC03469C420DD9FFF756
:1050A000B1FC03461846FFF7C9FC2F20FFF7F8FBB9
:1050B000FFF78EFD01E0FFF77BFC00BF2437BD4604
:1050C00090BD00BF302B0020342B0020422B00204D
:1050D00080B586B000AF00237B600023FB75164BC4
:1050E0001B683B61154B1B68FB603B461846FFF78E
:1050F0002BFE0346FB72FB7A002B07D03B683A1D60
:1051000039691846FFF760FE0123FB757B68184676
:10511000FFF7A8FE0346002B01D00123FB75FB7DA2
:10512000002B02D0F868FFF779FF054B00221A70B8
:1051300000BF1837BD4680BD342B0020302B002027
:10514000432B002080B483B000AF0346FB71044AB8
:10515000FB79537000BF0C37BD465DF8047B704788
:10516000242A002080B485B000AF7860134B5B78B0
:105170000133FB73114B9B78FA7B9A4201D10023D8
:10518000FB730E4B1B78FA7B9A4201D100230EE091
:105190007B68FA7B1A70094B5B781A4613465B00F2
:1051A0001344DB00054A13440433BB60BB68184654
:1051B0001437BD465DF8047B704700BF242A0020E9
:1051C00080B588B000AFF860B9607A603B600023BA
:1051D000FB610023BB7507F11603184600F0C8F900
:1051E00007F117031846FFF7BDFFB861BB69002B35
:1051F00002D10423FB6117E0BB6901221A70BB696D
:10520000FA685A60FFF7FEFB0246BB699A60BB6909
:10521000BA68DA60BB697A681A61BB693A685A6130
:10522000FB7D1846FFF78EFFBB7D184600F0ABF9FB
:10523000FB69002B01D1FFF7D2FCFB691846203730
:10524000BD4680BD80B586B000AF78600B46FB7070
:1052500000237B610023BB7307F10E03184600F0A7
:1052600087F907F10F031846FFF77CFF38613B69A8
:10527000002B02D104237B6109E03B69FA781A70A4
:105280003B697A685A60FB7B1846FFF75BFFBB7B84
:10529000184600F078F97B69002B01D1FFF79FFCDD
:1052A0007B6918461837BD4680BD000080B500AF49
:1052B0000D4B0022C3F840210B4B0022C3F84421C0
:1052C000094B0022C3F84821074B0022C3F84C21A8
:1052D000054B0022C3F80021034B0022C3F8042130
:1052E000FFF7CEFC00BF80BD0010014080B500AFCD
:1052F000FFF7EEFE00BF80BD80B500AFFFF758FBA3
:10530000134B00221A70124B00225A70104B0B22C2
:105310009A70104B00221A600F4B00221A700F4B2C
:1053200000221A701420FFF777FA07211420FFF7E4
:105330008DFA1420FFF722FA0020FFF705FBFFF794
:1053400061FB0246064B1A600023184680BD00BF71
:10535000242A0020302B0020402B0020412B00204D
:10536000342B002080B487B000AFF8600B467A6021
:10537000FB72154B9B78002B01D108231DE07B6845
:10538000002B01D1072318E0FB68002B01D1072374
:1053900013E0FB681B681B7C002B01D008230CE08A
:1053A000FB681B687B617B6900221A747B69FA7A4F
:1053B0005A747B697A685A61002318461C37BD46C7
:1053C0005DF8047B704700BF242A002080B586B0BA
:1053D00000AFF860B9607A60FB687B61144B9B7822
:1053E000002B01D108231EE0FB68002B01D108230C
:1053F00019E0BB68042B01D8072314E07B695B69C3
:10540000002B01D108230EE07B695B7C012B01D1CD
:10541000BB6800E000233B617B683A69B968786942
:10542000FFF7CEFE034618461837BD4680BD00BFC5
:10543000242A002080B584B000AF78607B68FB60D0
:105440000D4B9B78002B01D1082310E07B68002BCB
:1054500003D0FB685B69002B01D1082307E0FB68E0
:1054600000221A740221F868FFF7ECFE0346184682
:105470001037BD4680BD00BF242A002080B483B011
:1054800000AFEFF310833B603B687B6072B67B68D4
:1054900018460C37BD465DF8047B704780B400AFFA
:1054A00062B600BFBD465DF8047B704780B584B02E
:1054B00000AF7860FFF7E2FFF860164B9B68002BA7
:1054C0001BD1144B01229A60134BD3F88020134B4D
:1054D0001340104A1360104B104AC3F880200E4B43
:1054E000D3F884300B4A53600B4B4FF0FF32C3F8B4
:1054F00084207B6800221A7002E07B6801221A7007
:10550000FB68002B01D1FFF7C9FF002318461037B5
:10551000BD4680BD4831002000E100E0FC06FFBD33
:1055200080B584B000AF0346FB710F4B9B68002B26
:1055300015D0FB79002B12D1FFF7A0FFF8600B4AC2
:10554000094B1B681360094A074B5B685360064BA5
:1055500000229A60FB68002B01D1FFF79FFF002318
:1055600018461037BD4680BD4831002000E100E0FC
:1055700080B582B000AF78607868FFF797FF00BF12
:105580000837BD4680BD80B582B000AF0346FB71D1
:10559000FB791846FFF7C4FF00BF0837BD4680BD42
:1055A00080B483B000AF78600B46FB707B68DA682C
:1055B000FB787968098A01FB03F3134418460C371A
:1055C000BD465DF8047B704780B483B000AF78605F
:1055D00039603B687A68D2689B1A7A68128AB3FB92
:1055E000F2F3DBB218460C37BD465DF8047B70471A
:1055F00080B485B000AF78607B68002B01D10E23AA
:105600001DE07B689B681A467B685B68D31AFB7356
:105610007B681B687A6852681A6006E07B681A68C3
:105620001368591C1160FA7B1A70FB7B5A1EFA73BF
:10563000002BF3D17B681B6800221A7100231846E7
:105640001437BD465DF8047B704780B584B000AF69
:1056500078600023FB600023BB7207F10A03184641
:10566000FFF786FF7B681B681A687B685B689A4255
:105670001DD97B681B681A68013A1A601B681B7881
:1056800019467868FFF78CFFF8607B689B681A46BC
:105690007B681B681B68D31AFB727B681B681B79CD
:1056A000FA7A9A4203D97B681B68FA7A1A71BB7A34
:1056B0001846FFF768FFFB6818461037BD4680BDE7
:1056C00090B585B000AF786039603B68FB6000231F
:1056D000FB7207F10B031846FFF74AFF7B681B6854
:1056E0001C68621C1A60F9687868FFF76DFF034652
:1056F0002370FB7A1846FFF746FF00BF1437BD46FC
:1057000090BD80B582B000AF78607B689B68002B4D
:105710000CD07B685B697A6810697A6811687A686E
:10572000926898477B6800229A6000E000BF0837C3
:10573000BD4680BD0EB480B585B000AF7860FB6912
:10574000002B0CD00023FB6007F12003FB6007F166
:105750000C031A46F969786800F0A8F900E000BF68
:105760001437BD46BDE8804003B0704780B582B0B5
:1057700000AF78600B46FB707B681A687B689B689B
:10578000581C796888601344FA781A707B689A68A4
:105790007B685B689A4202D37868FFF7B2FF00BF6C
:1057A0000837BD4680BD80B586B000AFF860B960EF
:1057B0007A603B6000237B613B6803F00103002BB0
:1057C00021D00AE0BB680133BB607B6901337B6198
:1057D000FB7C1946F868FFF7C9FFBB681B78FB74B0
:1057E000FB7C002BEED106E07B68013B7B60202137
:1057F000F868FFF7BBFF7A687B699A422BD97B6810
:10580000002BF1D127E0BB68002B0BD0B8680BF060
:10581000A9F9786106E07B68013B7B602021F8688C
:10582000FFF7A4FF7A687B699A420ED97B68002B48
:10583000F1D10AE0BB680133BB607B6901337B6156
:10584000FB7C1946F868FFF791FFBB681B78FB7477
:10585000FB7C002BEED100BF1837BD4680BD000099
:1058600080B588B000AFF860B9607A603B60BB6813
:10587000FB610123BB6107E0FA697B68B2FBF3F3CC
:10588000FB61BB690133BB61FA697B689A42F3D261
:105890003A68BB699A4201D93B68BB61FB6A03F075
:1058A0000103002B1FD1BB6A002B1CD0FB6A03F045
:1058B0000203002B05D03B68002B02D13023FB757F
:1058C00001E02023FB7507E0BB6A013BBB62FB7D67
:1058D0001946F868FFF74AFFBB6A002B03D0BA6984
:1058E000BB6A9A42F0D30123FB613B68012B03D9C9
:1058F0003B68013B3B6009E0BA68FB69B2FBF3F32C
:105900003B613A697B689A4200D205E0FB697A689C
:1059100002FB03F3FB61E8E7BA68FB69B2FBF3F350
:105920003B613B69FA6902FB03F3BA68D31ABB60B7
:10593000154A3B6913441B781946F868FFF716FFB0
:10594000FA697B68B2FBF3F3FB61FB69002BE3D1DF
:10595000FB6A03F00103002B11D0BB6A002B0ED0B1
:1059600006E0BB6A013BBB622021F868FFF7FEFE40
:10597000BB6A002B03D0BA69BB6A9A42F1D300BF5D
:105980002037BD4680BD00BFB444030080B588B059
:1059900002AFF860B9607A603B60BB68002BB8BFAB
:1059A0005B423B6101237B6107E07B683A6992FBC4
:1059B000F3F33B617B6901337B617B683A699A420F
:1059C000F3DA3A687B699A4201D93B687B613B6AAA
:1059D000002B0AD0BB68002B04DB7B6A03F00403B6
:1059E000002B02D03B6A013B3B627B6A03F002035F
:1059F000002B02D03B68002B16D07B6A03F001031A
:105A0000002B11D13B6A002B0ED006E03B6A013B14
:105A10003B622021F868FFF7A9FE3B6A002B03D008
:105A20007A693B6A9A42F1D3BB68002B07DABB68FC
:105A30005B42BB602D21F868FFF798FE08E07B6AA7
:105A400003F00403002B03D02B21F868FFF78EFE30
:105A50007B6A03F00203002B19D07B6A03F0010379
:105A6000002B14D13B68002B11D13B6A002B0ED0C8
:105A700006E03B6A013B3B623021F868FFF776FEA7
:105A80003B6A002B03D07A693B6A9A42F1D3B9682A
:105A90007B6A01933B6A00933B687A68F868FFF77A
:105AA000DFFE00BF1837BD4680BD000080B58EB058
:105AB00002AFF860B9607A60BB68002B00F0E88143
:105AC000BB681B7887F82F30BB680133BB6097F841
:105AD0002F30002B00F0D38197F82F30252B40F08A
:105AE000C28100233B620123BB62BB681B7887F83D
:105AF0002F3097F82F302D2B04D0302B0AD02B2BA2
:105B000010D017E03B6A43F001033B62BB680133EE
:105B1000BB6012E03B6A43F002033B62BB680133A7
:105B2000BB600AE03B6A43F004033B62BB6801339D
:105B3000BB6002E00023BB6200BFBB6A002BD4D174
:105B40000023FB6197F82F302A2B0CD17B681B6850
:105B5000191D7A6811601B68FA691344FB61BB6800
:105B60000133BB601AE0BB681B7887F82F3097F8C9
:105B70002F302F2B12D997F82F30392B0ED8BB6826
:105B80000133BB60FA6913469B0013445B001A465D
:105B900097F82F301344303BFB61D3E700237B623F
:105BA000BB681B7887F82F3097F82F302E2B1DD12C
:105BB000BB680133BB60BB681B7887F82F3097F850
:105BC0002F302F2B12D997F82F30392B0ED8BB68D6
:105BD0000133BB607A6A13469B0013445B001A468C
:105BE00097F82F301344303B7B62E4E7BB681B78A7
:105BF00087F82F3097F82F306C2B03D097F82F3081
:105C0000682B07D1BB680133BB60BB681B7887F882
:105C10002F30EFE797F82F30253B532B00F21E81F2
:105C200001A252F823F000BF535E02005D5E020045
:105C30005D5E02005D5E02005D5E02005D5E020070
:105C40005D5E02005D5E02005D5E02005D5E020060
:105C50005D5E02005D5E02005D5E02005D5E020050
:105C60005D5E02005D5E02005D5E02005D5E020040
:105C70005D5E02005D5E02005D5E02005D5E020030
:105C80005D5E02005D5E02005D5E02005D5E020020
:105C90005D5E02005D5E02005D5E02005D5E020010
:105CA0005D5E02005D5E02005D5E02005D5E020000
:105CB0005D5E02005D5E02005D5E02005D5E0200F0
:105CC0005D5E02005D5E02005D5E02005D5E0200E0
:105CD0005D5E02005D5E02005D5E02005D5E0200D0
:105CE0005D5E02005D5E02005D5E02005D5E0200C0
:105CF0005D5E0200DF5D02005D5E02005D5E02002F
:105D00005D5E02005D5E02005D5E02005D5E02009F
:105D10005D5E02005D5E02005D5E02005D5E02008F
:105D2000795D0200975D02005D5E02005D5E02002B
:105D30005D5E02005D5E0200975D02005D5E020036
:105D40005D5E02005D5E02005D5E02005D5E02005F
:105D50005D5E02001F5E02005D5E02005D5E02008D
:105D6000035E02005D5E0200BB5D02005D5E02003C
:105D70005D5E0200DF5D02007B681B68191D7A68AA
:105D800011601B68BB62BB6AFB76FB7E1946F86834
:105D9000FFF7ECFC63E07B681B68191D7A681160F3
:105DA0001B68BB623B6A0193FB6900937B6A0A2212
:105DB000B96AF868FFF7EAFD51E07B681B68191DB6
:105DC0007A6811601B68BB62B96A3B6A0193FB6920
:105DD00000937B6A0A22F868FFF742FD3FE07B6888
:105DE0001B68191D7A6811601B68BB62B96A3B6A3F
:105DF0000193FB6900937B6A1022F868FFF730FD7E
:105E00002DE07B681B68191D7A6811601B687B6137
:105E10003B6AFA697969F868FFF7C5FC1FE07B689F
:105E20001B68191D7A6811601B68BB623021F86815
:105E3000FFF79CFC7821F868FFF798FCB96A00230B
:105E400001930823009308231022F868FFF708FD48
:105E500005E02521F868FFF789FC00E000BFBB687A
:105E60000133BB6005E097F82F301946F868FFF75B
:105E70007DFCBB681B78002B7FF422AE00E000BFE6
:105E8000FB681B7B002B04D0F868FFF73AFC00E0AE
:105E900000BF3037BD4680BD90B486B000AF78609B
:105EA00039607B683A6853E8004F04EB020043E82E
:105EB000000191F0000FF6D17C613861F9603B6917
:105EC00018461837BD4690BC704790B486B000AFF6
:105ED000786039607B683A6853E8004FA4EB0200B1
:105EE00043E8000191F0000FF6D17C613861F96060
:105EF0003B6918461837BD4690BC704780B582B0E4
:105F000000AF78607868FFF773FB034618460837E0
:105F1000BD4680BD80B58AB000AF786039607B68CF
:105F20001B8A043BFB613A68FB691344DA1CFB697A
:105F3000B2FBF3F3FB767868FFF787FB78617B6948
:105F4000002B01D1002337E07B6900221A717B69A5
:105F500001225A71FB699AB27B69DA807B697B62A4
:105F6000FB7E013B3B617B6A7A681A6000233B62DF
:105F70001DE07868FFF769FBF860FB68002B0ED026
:105F80007B695B790133DAB27B695A717B6AFA68A3
:105F90001A60FB687A681A60FB687B6204E07869C3
:105FA00000F00EF8002307E03B6A01333B623A6AD7
:105FB0003B699A42DDD37B6918462837BD4680BDD0
:105FC00080B58AB000AF78607B68FB61FB695B7964
:105FD000FB767B683B62FB7E013B7B6100237B623F
:105FE00005E03B6A1B683B627B6A01337B627A6A2D
:105FF0007B699A42F5D33B6A1B683B617B683B62D5
:1060000000237B620BE03B6A1B68FB60396A3869DE
:10601000FFF756FBFB683B627B6A01337B62FA7ECB
:106020007B6A9A42EFD800BF2837BD4680BD80B555
:1060300084B000AF78607B68FB60FB6804330121AB
:106040001846FFF729FF00BF1037BD4680BD80B559
:1060500086B000AF78607B687B617B690433012187
:106060001846FFF732FF0346FB6007F10C033B6164
:106070003B691B78002B02D17868FFF7A1FF00BFB6
:106080001837BD4680BD80B58CB000AFF860B960F0
:106090007A603B60FB68BB61BB69DB887B61FB6846
:1060A000FB623B681A1D7B69B2FBF3F3BB623B6882
:1060B00004337A69B3FBF2F2796901FB02F29B1AAD
:1060C0007B623A687B681A447B691344DA1C7B69FB
:1060D000B2FBF3F3FB7405E0FB6A1B68FB62BB6A6F
:1060E000013BBB62BB6A002BF6D100233B627A699D
:1060F0007B6AD31AFB61FA697B68934228BF134617
:10610000FB612DE097F83830002B0BD0BA683B6A62
:10611000D018FA6A7B6A13440433FA6919460AF004
:1061200075F80AE0FA6A7B6A1344181DBA683B6A7C
:106130001344FA6919460AF069F800237B62FB6A86
:106140001B68FB627A68FB69D31A7B603A6AFB6959
:1061500013443B627A697B68934228BF1346FB6114
:106160007B68002BCED100BF3037BD4680BD80B5E7
:1061700086B002AFF860B9607A603B60002300939C
:106180003B687A68B968F868FFF77DFF00BF103791
:10619000BD4680BD80B586B002AFF860B9607A6058
:1061A0003B60012300933B687A68B968F868FFF7A1
:1061B0006AFF00BF1037BD4680BD80B483B000AF1A
:1061C000786039607B683A681A607B681B681A6877
:1061D0007B685A607B685A687B681B685B689A4278
:1061E00002D17B6800225A6000BF0C37BD465DF8C3
:1061F000047B704780B483B000AF78607B685B68D5
:10620000002B14D07B685B681A467B681B689B6810
:1062100013441A467B685A607B685A687B681B681F
:106220005B689A4204D17B6800225A6000E000BF9C
:106230000C37BD465DF8047B7047000080B584B024
:1062400000AF7860786800F00DF8F860FB68002B0C
:1062500001D0FB6800E0024B18461037BD4680BDF8
:10626000D044030080B487B000AF7860174B7B61E7
:10627000174B3B611FE03A697B69D31ADB10DA0FD9
:1062800013445B10DB007A691344FB60FB681B68F6
:10629000BB60BA687B689A4202D9FB683B610AE03E
:1062A000BA687B689A4203D2FB6808337B6102E0DC
:1062B000FB685B6804E07A693B699A42DBD30023A0
:1062C00018461C37BD465DF8047B7047EC47030059
:1062D000DC48030080B483B000AF78600B467B805D
:1062E0007B681A687B88012101FA03F31A437B68F3
:1062F0001A6000BF0C37BD465DF8047B704780B460
:1063000083B000AF78600B467B807B681A687B881F
:10631000012101FA03F3DB431A407B681A6000BFD6
:106320000C37BD465DF8047B704780B483B000AF86
:1063300078600B467B807B88012202FA03F31A46C1
:106340007B681340002B14BF01230023DBB21846E7
:106350000C37BD465DF8047B704780B584B000AF54
:1063600078600023FB810CE0FB8919467868FFF711
:10637000DCFF0346002B01D0FB8907E0FB890133DA
:10638000FB81FB891F2BEFD94FF6FF73184610379F
:10639000BD4680BD80B586B002AFF860B9601146D9
:1063A0001A460B46FB8013467B71FA887B79009373
:1063B00013460122B968F86800F004F800BF1037EE
:1063C000BD4680BD80B586B000AFF860B9607A6028
:1063D0007B80FB68002B3AD0BB68002B37D07B68F2
:1063E000002B34D000237B612EE07B695B00FA68D0
:1063F00013441B887A889A4223D100233B611BE017
:1064000097F82030002B0AD03B699B00BA681344F0
:106410007A6992B211461846FFF75CFF09E03B69C2
:106420009B00BA6813447A6992B211461846FFF786
:1064300066FF3B6901333B613A697B689A42DFD36F
:1064400005E07B6901337B617B691F2BCDD9183750
:10645000BD4680BD80B596B000AFF860B9607A6087
:1064600000233B61BB68002B1FD000237B6519E034
:106470007B6D9BB219467868FFF757FF0346002BE8
:106480000DD03B695A1C3A617A6D5200B9680A44D2
:1064900012885B0007F158010B4423F8442C7B6DF4
:1064A00001337B657B6D1F2BE2D9FB68184607F132
:1064B00010034422194609F0A9FEF8685837BD4672
:1064C00080BD80B483B000AF78604FF0A043184621
:1064D0000C37BD465DF8047B704780B584B000AFD3
:1064E00078603B1D1846FFF7ECFFF8607B680122DF
:1064F00002FA03F31946F86800F02CF800BF1037D1
:10650000BD4680BD80B584B000AF78603B1D1846A5
:10651000FFF7D7FFF8607B68012202FA03F3194600
:10652000F86800F026F800BF1037BD4680BD80B582
:1065300082B000AF786039603B68002B03D1786887
:10654000FFF7E0FF02E07868FFF7C7FF00BF0837FA
:10655000BD4680BD80B483B000AF786039607B6891
:106560003A68C3F8082500BF0C37BD465DF8047BC8
:10657000704780B483B000AF786039607B683A6858
:10658000C3F80C2500BF0C37BD465DF8047B70478F
:1065900080B582B000AF7860054A7B6813441B78F1
:1065A00000211846FFF7C3FF00BF0837BD4680BD76
:1065B000DC48030080B483B000AF0346FB71094997
:1065C00097F907305B09FA7902F01F02012000FAFF
:1065D00002F2203341F8232000BF0C37BD465DF89E
:1065E000047B704700E100E080B483B000AF7860C6
:1065F0004FF080427B68C2F8083300BF0C37BD46BD
:106600005DF8047B704780B483B000AF0346FB7134
:10661000FB7903F1804301221A6000BF0C37BD46AD
:106620005DF8047B704780B485B000AF0346FB8003
:10663000FB8803F1804300221A60FB8803F180434A
:106640001B68FB60FB6800BF1437BD465DF8047B28
:10665000704780B483B000AF0346FB80FB8803F132
:1066600080431B68002B14BF01230023DBB21846B4
:106670000C37BD465DF8047B704780B483B000AF33
:106680000346FB714FF08042FB7903F00303C2F82D
:10669000183500BF0C37BD465DF8047B704780B4E9
:1066A00000AF4FF08043D3F818341B0C03F0010304
:1066B000002B14BF01230023DBB21846BD465DF852
:1066C000047B704780B483B000AF0346FB710C4A73
:1066D00097F907305B0952F82320FB7903F01F0379
:1066E00022FA03F303F00103002B14BF012300235C
:1066F000DBB218460C37BD465DF8047B704700BF1F
:1067000000E100E080B500AF0020FFF7DBFF0346AB
:1067100083F00103DBB2002B03D00721002000F03F
:1067200075F900BF80BD000080B500AF0C20FFF7F9
:106730006AFF00BFFFF7B3FF0346002BFAD1024BFD
:1067400000229A7000BF80BD442B002080B582B02B
:1067500000AF00237B60144B1B78002B02D08523F5
:106760007B601BE0104B00229A600F4B00225A60A6
:106770000D4B00221A610C4B0022DA60FFF7C2FFBA
:1067800009F0ACFA034683F00103DBB2002B02D020
:106790000120FFF772FF044B01221A707B68184634
:1067A0000837BD4680BD00BF442B002080B485B0B3
:1067B00000AF78607B681B68FB60FB68002B03D030
:1067C000FB681A687B681A60FB6818461437BD4678
:1067D0005DF8047B7047000080B582B000AF0023F5
:1067E000FB71FB1D1846FEF7C3FE094BDB68013B3E
:1067F000074AD360064BDB68002B01D1FFF794FFFB
:10680000FB791846FEF7BFFE00BF0837BD4680BDC6
:10681000442B002080B584B000AF0346FB71FB79A8
:10682000002B02D10B4BFB6001E00B4BFB60F868C7
:10683000FFF7BCFFB860BB68002B05D0BB685B6886
:10684000FA7910469847F2E700BF00BF1037BD46FF
:1068500080BD00BF4C2B0020542B002080B500AF22
:106860004FF48070FFF7F5FE0346002B0CD04FF479
:106870008070FFF7D8FE0120FFF7B6FE0D4B012216
:106880005A700020FFF7C6FF4FF48270FFF7E1FE59
:106890000346002B0CD04FF48270FFF7C4FE022099
:1068A000FFF7A2FE034B01229A700120FFF7B2FF0F
:1068B00000BF80BD442B002080B582B000AF78605F
:1068C00039607B68002B02D10020FFF7A3FF00BFD7
:1068D0000837BD4680BD000080B584B000AF0346D8
:1068E0003960FB71FB79012B08D0032B23D0002BDF
:1068F00000D027E00020FFF75DFE23E00023FB73BC
:1069000007F10F031846FEF733FE104B1B7883F098
:106910000103DBB2002B01D0FFF718FF0B4BDB6844
:1069200001330A4AD360094B01229A70FB7B184657
:10693000FEF729FE06E00721002000F067F8FFF7C8
:106940004BFF00BF00BF1037BD4680BD442B002069
:1069500080B483B000AF0346FB71094997F9073053
:106960005B09FA7902F01F02012000FA02F241F8F5
:10697000232000BF0C37BD465DF8047B704700BF85
:1069800000E100E080B483B000AF0346FB71094929
:1069900097F907305B09FA7902F01F02012000FA2B
:1069A00002F2603341F8232000BF0C37BD465DF88A
:1069B000047B704700E100E080B483B000AF034681
:1069C0003960FB7197F90730002B0BDA0D49FB7921
:1069D00003F00F03043B3A68D2B25201D2B20B4427
:1069E0001A7609E0084997F907303A68D2B252019D
:1069F000D2B20B4483F8002300BF0C37BD465DF8CC
:106A0000047B704700ED00E000E100E080B582B05B
:106A100000AF03460A46FB711346BB71BA7997F97A
:106A2000073011461846FFF7C7FF97F90730184699
:106A3000FFF7A8FF97F907301846FFF789FF00BF57
:106A40000837BD4680BD80B582B000AF0346FB80ED
:106A5000FB88184600F024F803461B68012B0CBF86
:106A600001230023DBB218460837BD4680BD80B540
:106A700084B000AF0346FB80FB88184600F010F896
:106A800003461A4600231360FB88184600F008F8F6
:106A900003461B68FB60FB6800BF1037BD4680BD26
:106AA00080B483B000AF0346FB80FB8803F18043D2
:106AB00003F5C04318460C37BD465DF8047B7047AC
:106AC00080B483B000AF7860054BD3F804237B68B3
:106AD000134018460C37BD465DF8047B704700BF75
:106AE0000060004080B483B000AF7860074A7B68E4
:106AF00003F5A27352F823301B0A03F01F03184654
:106B00000C37BD465DF8047B704700BF0060004055
:106B100080B483B000AF7860074A7B6803F5A27346
:106B200052F823301B0C03F00303DBB218460C377A
:106B3000BD465DF8047B70470060004080B483B0C0
:106B400000AF78604FF0A04318460C37BD465DF8A3
:106B5000047B704780B584B000AF78600B46FB7053
:106B60003B1D1846FFF7EAFFF8607A687968FB6812
:106B700001F5E07153F8213023F44031FB6802F550
:106B8000E07243F822107A687968FB6801F5E071D9
:106B900053F82130F97809041943FB6802F5E072D3
:106BA00043F8221000BF1037BD4680BD80B584B0C9
:106BB00000AF78603B1D1846FFF7C0FFF8607A68A9
:106BC000FB6802F5E07253F822301B0C03F003035C
:106BD000DBB218461037BD4680BD80B483B000AF2D
:106BE00078607B68D3F8103518460C37BD465DF8E1
:106BF000047B704780B586B000AFF860B9607A60FA
:106C00004FF0A0433B61FB687B6112E07B699B0016
:106C100007F11802134453F8083C1846FFF7DDFF4C
:106C200002467B681A607B6804337B607B690133B2
:106C30007B61FA68BB681A447B699A42E6D800BF58
:106C40001837BD4680BD80B485B000AF786039602C
:106C50003B68FB607B68DB08BB607B6803F0070375
:106C60007B6001227B6802FA03F3F968BA680A4480
:106C70001278134018461437BD465DF8047B704700
:106C800080B485B000AF786039603B68FB607B689A
:106C9000DB08BB607B6803F007037B60FA68BB68B6
:106CA0001344F968BA680A44127851B201207A682C
:106CB00000FA02F252B20A4352B2D2B21A7000BFC4
:106CC0001437BD465DF8047B7047000080B483B084
:106CD00000AF7860054A7B681344303393F9003085
:106CE00018460C37BD465DF8047B7047582B0020D2
:106CF00080B483B000AF7860044A7B6852F82330D8
:106D000018460C37BD465DF8047B7047582B0020B1
:106D100080B594B000AF0023FB640023FB604FF408
:106D20008073A7F8463001233B640023BB6421E055
:106D3000B7F846301846FFF786FE0346002B0ED004
:106D4000386CFFF7BDFE0346002B08D0B7F846307D
:106D50001846FFF78CFEFA6C3B6C1343FB643B6CEC
:106D60005B003B64B7F846300433A7F84630BB6C91
:106D70000133BB64BB6C072BDAD94FF4BE70FFF74D
:106D800062FE0346002B0ED04FF4BE70FFF76FFE7D
:106D9000FB6C43F00043FB6407F10C031A4601212E
:106DA0000020FFF727FFFB6CDBB2002B29D001236B
:106DB0003B640023BB6421E03A6CFB6C1340002B66
:106DC00016D0B86CFFF78EFE7863B86CFFF7A0FEA4
:106DD000034687F83330B86CFFF78AFFF862FB6A26
:106DE000002B05D097F83320FB6A1146786B984743
:106DF0003B6C5B003B64BB6C0133BB64BB6C072B1F
:106E0000DAD9FB6C002B80F2F180002387F83B304D
:106E10000023BB600023FB630BE0FB6B9B0007F1CF
:106E2000500213444FF0FF3243F84C2CFB6B0133FC
:106E3000FB63FB6B002BF0D0002387F83B30002373
:106E4000BB6474E06B4ABB6C1344503393F900305D
:106E500087F82B3097F82B3023F0C0037B62654A0C
:106E6000BB6C1344503393F90030B3F1FF3F5BD058
:106E70003B1D1946786AFFF7E6FE0346002B53D008
:106E800097F82B309B0987F82330786AFFF71EFFAD
:106E900003461846FFF72CFFF861FB69002B03D16E
:106EA00097F82330032B3FD197F82330032B05D1DC
:106EB00007F108031946786AFFF7E2FE786AFFF7E0
:106EC00075FE0346FB7607F10C031946786AFFF757
:106ED000BAFE78617B69002B02D0FB7E022B05D0C5
:106EE0007B69002B20D1FB7E032B1DD197F823302B
:106EF000032B10D1FB7E022B01D1032300E00223E0
:106F0000FB74FB7C1946786AFFF724FE97F83B3048
:106F1000013387F83B30FB69002B05D097F823201D
:106F2000FB691146786A9847BB6C0133BB64BB6C44
:106F3000032B87D997F83B30002B52D0012387F8D9
:106F40003A303B461A4601210020FFF753FE00234A
:106F5000FB6316E0FB6B9B0007F15002134453F8F0
:106F6000502CFB6B9B0007F150010B4453F8443C41
:106F70009A4203D0002387F83A3005E0FB6B0133D7
:106F8000FB63FB6B002BE5D097F83A30002B03D066
:106F9000002387F83B3024E00023FB631EE0FB6BFB
:106FA0009B0007F15002134453F8502CFB6B9B00DD
:106FB00007F150010B4443F8442CFB6B9B0007F195
:106FC0005002134453F8482CFB6B9B0007F150010F
:106FD0000B4443F84C2CFB6B0133FB63FB6B002B26
:106FE000DDD097F83B30002B7FF426AF00BF503741
:106FF000BD4680BD582B002080B483B000AF7860C0
:107000000B46FB70FB787A68134401221A6000BFBC
:107010000C37BD465DF8047B704780B485B000AF87
:1070200078600B467B807B887A68134400221A6064
:107030007B887A6813441B68FB60FB6800BF1437C9
:10704000BD465DF8047B704780B483B000AF7860C4
:107050000B467B807B887A6813441B68002B14BF27
:1070600001230023DBB218460C37BD465DF8047BD4
:10707000704780B483B000AF786039607B683A684D
:10708000C3F8042300BF0C37BD465DF8047B70478E
:1070900080B483B000AF786039607B683A68C3F829
:1070A000082300BF0C37BD465DF8047B704780B4F1
:1070B00083B000AF78607B680622C3F8002500BF6C
:1070C0000C37BD465DF8047B704780B485B000AFD7
:1070D000F860B9607A60FB68BA68C3F80825FB6895
:1070E0007A68C3F80C2500BF1437BD465DF8047BF1
:1070F000704780B483B000AF786039607B683A68CD
:10710000C3F8242500BF0C37BD465DF8047B7047EB
:1071100080B485B000AF78607B68D3F8C434FB607E
:107120007B68FA68C3F8C424FB6818461437BD4668
:107130005DF8047B704780B483B000AF78600B4685
:10714000FB70FA787B68C3F8882500BF0C37BD4612
:107150005DF8047B704780B485B000AFF860B9601B
:107160001346FB71BA68FB68C3F84425FA79FB68DB
:10717000C3F8482500BF1437BD465DF8047B70474F
:1071800080B485B000AFF860B9601346FB71BA688F
:10719000FB68C3F83425FA79FB68C3F8382500BFCB
:1071A0001437BD465DF8047B704780B483B000AFF0
:1071B000786039607B683A68C3F8002200BF0C37FA
:1071C000BD465DF8047B704780B483B000AF786043
:1071D0007B68D3F84C3518460C37BD465DF8047B08
:1071E000704780B483B000AF78607B68D3F83C35DB
:1071F00018460C37BD465DF8047B704780B483B0F9
:1072000000AF78607B680122C3F8502500BF0C37BF
:10721000BD465DF8047B704780B483B000AF7860F2
:107220007B680022C3F8502500BF0C37BD465DF8CF
:10723000047B704780B483B000AF78607B68012224
:10724000C3F8402500BF0C37BD465DF8047B70478E
:1072500080B483B000AF78607B680022C3F840251B
:1072600000BF0C37BD465DF8047B704780B485B025
:1072700000AF78607B681B0BFB7397F90F301846E3
:107280001437BD465DF8047B704780B483B000AF0F
:1072900078607B6803F06043B3F1005F0CBF0123AB
:1072A0000023DBB218460C37BD465DF8047B7047FF
:1072B00080B483B000AF78604FF0A04318460C371D
:1072C000BD465DF8047B704780B584B000AF786040
:1072D0003B1D1846FFF7ECFFF8607B68012202FABD
:1072E00003F31946F86800F03CF800BF1037BD46BC
:1072F00080BD80B584B000AF78603B1D1846FFF7B5
:10730000D7FFF8607B68012202FA03F31946F86898
:1073100000F036F800BF1037BD4680BD80B584B0A0
:1073200000AF78603B1D1846FFF7C2FFF860F868B1
:1073300000F00AF802467B6822FA03F303F0010327
:1073400018461037BD4680BD80B483B000AF78606A
:107350007B68D3F8103518460C37BD465DF8047BC2
:10736000704780B483B000AF786039607B683A685A
:10737000C3F8082500BF0C37BD465DF8047B704795
:1073800080B483B000AF786039607B683A68C3F836
:107390000C2500BF0C37BD465DF8047B704700002C
:1073A00080B485B000AF7860254BFB607B68002B14
:1073B00040D0244B1A68F9687B6800BF00BF00BF4B
:1073C00000BF00BF00BF00BF00BF8A422FD000BF78
:1073D00000BF00BF00BF00BF00BF00BF00BF00BFB5
:1073E00000BF00BF00BF00BF00BF00BF00BF00BFA5
:1073F00000BF00BF00BF00BF00BF00BF00BF00BF95
:1074000000BF00BF00BF00BF00BF00BF00BF00BF84
:1074100000BF00BF00BF00BF00BF00BF00BF00BF74
:1074200000BF00BF00BF00BF00BF00BF00BF013BE7
:10743000C3D17B6000BF1437BD465DF8047B704745
:107440000024F4002822002080B485B000AF7860CA
:107450000323FB607B6803F00203002B02D048F299
:107460000123FB607B6803F00403002B02D048F289
:107470000223FB60FB6818461437BD465DF8047BA9
:10748000704780B584B000AF78604FF0A0427B6851
:107490001B6803F5E07340F20C6142F823104FF0D3
:1074A000A0427B685B6803F5E07340F20C6142F830
:1074B00023107B681B681846FFF706FF7B685B6834
:1074C0001846FFF701FF4FF0A0427B681B6803F5E9
:1074D000E07340F20D6142F823104FF0A0427B6848
:1074E0005B6803F5E07340F20D6142F8231004205D
:1074F000FFF756FF0023FB601EE07B685B681846C1
:10750000FFF70CFF0346002B03D0FB68002B17D1BD
:1075100024E07B681B681846FFF7EBFE0420FFF7AA
:107520003FFF7B681B681846FFF7CEFE0420FFF77D
:1075300037FFFB680133FB60FB68082BDDDD00E0F3
:1075400000BF7B685B681846FFF7D3FE0420FFF797
:1075500027FF7B685B681846FFF7B6FE1037BD460D
:1075600080BD000080B588B000AFF860B9607A6077
:107570003B60FB681B791A4613469B001344DB00F3
:10758000344A1344FB61FB6993F82230002B03D08B
:107590000823BB61BB6959E0FB697A681A60FB6923
:1075A0003A685A60FB6900229A60FB69002283F8FE
:1075B0002520FB69002283F82420BB689A7BFB69A5
:1075C00083F82720BB685B7B002B02D0B868FFF7ED
:1075D00058FF4FF0A042BB681B6803F5E07340F210
:1075E0000C6142F823104FF0A042BB685B6803F5C2
:1075F000E07340F20C6142F82310FB681B687B616A
:10760000BB681968BB685B681A467869FFF75DFD5F
:10761000BB689B6819467869FFF76BFDFB691B68BF
:10762000002B0CD0FB681B681846FFF71FFE0346B3
:107630001A46BB681B7B19461046FFF7E7F9FB6942
:10764000012283F822200023BB61BB691846203742
:10765000BD4680BDB02B002080B584B000AF7860FF
:107660007B681B791A4613469B001344DB00084ACB
:107670001344FB607B681B68BB60B868FFF717FDAD
:10768000FB68022283F8222000BF1037BD4680BD70
:10769000B02B002080B582B000AF786039603B68C5
:1076A00003F00103002B03D07868FFF7A7FD02E089
:1076B0007868FFF7B1FD3B6803F00203002B03D0AD
:1076C0007868FFF7B7FD02E07868FFF7C1FD00BFFB
:1076D0000837BD4680BD000080B588B000AFF860B7
:1076E000B9607A603B600023FB610823FB764FF4AE
:1076F00082733B837B685B681846FFF7C6FD0346D1
:1077000083F00103DBB2002B03D01023FB61FB6984
:1077100071E14FF0FF31B868FFF7BAFCFB6893F8EE
:107720002430DBB2002B09D0FB689B681946B8688F
:10773000FFF79FFC1123FB61FB695CE13B6803F0F1
:107740000403002B06D13B6803F01003002B01D18A
:10775000012300E0002303F00103DAB2FB6883F8A1
:107760002420FB687A680C3307CA83E807003B686B
:1077700003F01003002B14BF01230023DAB2FB68CF
:1077800083F825207B685B781946B868FFF7D3FC3F
:107790004FF48271B868FFF740FC4FF49271B868FB
:1077A000FFF73BFC3968B868FFF774FF7B681B780C
:1077B000032B00F2C88001A252F823F0BF78020028
:1077C000177902006D780200CD7702007B689B6814
:1077D0001846FFF75AFD034683F00103DBB2002B86
:1077E00003D01023FB61FB6905E14FF48071B86899
:1077F000FFF7DBFC7B6859687B689B781A46B868A2
:10780000FFF7A9FC4FF4A871B868FFF706FC4FF426
:10781000B071B868FFF701FC4FF4A471B868FFF7C6
:10782000FCFB2021B868FFF7E7FB0821B868FFF7E9
:10783000E3FB00BF4FF4A871B868FFF705FC0346EF
:1078400083F00103DBB2002BF4D14FF4A871B868C8
:10785000FFF7E3FB7B6899687B68DB781A46B868BA
:10786000FFF779FCFB68664A9A606FE07B685968AD
:107870007B689B781A46B868FFF76DFC7B689B684D
:107880001846FFF702FD034683F00103DBB2002B2D
:1078900003D01023FB61FB69ADE07B6899687B68CE
:1078A000DB781A46B868FFF76BFC4FF48451B86870
:1078B000FFF77BFCFB6840F202229A6046E07B689F
:1078C00059687B689B781A46B868FFF744FC3B68A8
:1078D00003F02003002B10D04FF48071B868FFF73D
:1078E00064FCFB68464A9A604FF4A471B868FFF7DD
:1078F00094FB4FF4A4733B8308E04FF40071B86825
:10790000FFF753FCFB6840F202229A602021B8681E
:10791000FFF772FB1AE07B6859687B689B781A4610
:10792000B868FFF72DFC4FF48051B868FFF73DFCB5
:10793000FB6840F202229A600023FB762021B8689F
:10794000FFF75AFB02E00723FB6100BF3B6803F02F
:107950000803002B08D17B681B78032B04D0FB7E27
:107960001946B868FFF748FBFB681B68002B27D057
:107970003B6803F00403002B03D0FB684FF4007254
:107980009A60FB689B681946B868FFF772FB31E0A4
:107990004FF49271B868FFF757FB0346002B0FD0E6
:1079A0004FF49271B868FFF738FB2021B868FFF7F1
:1079B00023FB1421B868FFF71FFB4FF482733B834E
:1079C0003B8B1946B868FFF73FFB034683F0010382
:1079D000DBB2002BDCD1B868FFF79AFB7861FB685B
:1079E000002283F824207B69002B03D07869FFF7FD
:1079F0002BFDF861FB6918462037BD4680BD00BFEE
:107A00000002040080B586B000AFF860B9607A600B
:107A100000237B61FB681B791A4613469B001344C5
:107A2000DB00084A13443B61FB6819687B68BA684D
:107A30003869FFF751FE78617B6918461837BD46F3
:107A400080BD00BFB02B002080B588B000AFF860CB
:107A50007A601A460B46FB721346BB7207F1140399
:107A600000221A605A609A60FB7A7B75BB7ABB75FC
:107A70007B68BB6197F82830002B01D0202200E002
:107A8000002207F114031946F868FFF7BBFF03460D
:107A900018462037BD4680BD80B588B000AFF8607D
:107AA0007A601A460B46FB721346BB7207F1140349
:107AB00000221A605A609A6001233B75FB7A7B753D
:107AC000BB7ABB757B68BB6107F1140300221946C2
:107AD000F868FFF797FF034618462037BD4680BD7C
:107AE00080B588B000AF786039604FF492717868E3
:107AF000FFF7AAFA0346002B27D04FF4927178685B
:107B0000FFF78BFA4FF482717868FFF79DFA03460E
:107B100083F00103DBB2002B17D03B689B6819464A
:107B20007868FFF7B5FA3B6802229A603B689B6869
:107B300019467868FFF79DFA20217868FFF75CFA0C
:107B400014217868FFF758FAC8E04FF4827178681A
:107B5000FFF77AFA0346002B54D04FF4827178680D
:107B6000FFF75BFA3A6807F110030C3207CA83E8A3
:107B700007003B6893F82330002B1FD03B681B7B2A
:107B8000012B05D17868FFF72CFB0346DBB204E03C
:107B90007868FFF719FB0346DBB2BB743B681B7BBD
:107BA000022B05D17868FFF71CFB0346DBB204E02B
:107BB0007868FFF709FB0346DBB2FB744FF4B07142
:107BC0007868FFF72AFA4FF4AE717868FFF725FA64
:107BD0003B6893F8253083F00103DBB2002B04D11E
:107BE0003B6893F82330002B4ED000217868FFF7D4
:107BF000DCFA3B6800229A604FF0FF317868FFF7AB
:107C000047FA41E04FF4A4717868FFF706FA3B6841
:107C10001B7B002B1BD13A6807F110030C3207CAFB
:107C200083E807003B6893F8253083F00103DBB25B
:107C3000002B29D000217868FFF7B7FA3B680022B3
:107C40009A604FF0FF317868FFF722FA1CE04FF49A
:107C500000717868FFF7A9FA3B6840F202229A6047
:107C60004FF0FF317868FFF713FA3B689B681946BD
:107C70007868FFF7FEF908217868FFF7BDF9202141
:107C80007868FFF7B9F929E07868FFF741FAF861F9
:107C9000FB6903F00203002B02D001233B7309E0D0
:107CA000FB6903F00403002B02D002233B7301E0C5
:107CB00000233B733B6893F8253083F00103DBB26C
:107CC000002B03D03B68002283F824203B681B680C
:107CD0003A68516807F10C02104698472037BD46B4
:107CE00080BD000080B500AF02490348FFF7F8FEF1
:107CF00000BF80BDB02B00200030004080B485B0B4
:107D000000AF78600B467B807B887A681344002242
:107D10001A607B887A6813441B68FB60FB6800BFAD
:107D20001437BD465DF8047B704780B483B000AF64
:107D300078600B467B807B887A6813441B68002B35
:107D400014BF01230023DBB218460C37BD465DF893
:107D5000047B704780B483B000AF786039607B6883
:107D6000D3F804233B681340002B14BF01230023E6
:107D7000DBB218460C37BD465DF8047B704780B413
:107D800083B000AF786039607B683A68C3F8082335
:107D900000BF0C37BD465DF8047B704780B485B0EA
:107DA00000AF78607B68D3F88034FB607B68FA684A
:107DB000C3F88024FB6818461437BD465DF8047B81
:107DC000704780B483B000AF78607B68D3F8183513
:107DD000DBB218460C37BD465DF8047B704780B4B3
:107DE00083B000AF78600B46FB70FA787B68C3F80D
:107DF0001C2500BF0C37BD465DF8047B704780B47E
:107E000083B000AF78600B46FB70FB787A68134450
:107E100001221A6000BF0C37BD465DF8047B704735
:107E200080B485B000AF78600B467B807B887A6831
:107E3000134400221A607B887A6813441B68FB6035
:107E4000FB6800BF1437BD465DF8047B704780B403
:107E500083B000AF78600B467B807B887A681344E0
:107E60001B68002B14BF01230023DBB218460C371C
:107E7000BD465DF8047B704780B483B000AF786086
:107E800039607B68D3F800223B68DB431A407B688B
:107E9000C3F8002200BF0C37BD465DF8047B704775
:107EA00080B485B000AF78607B68D3F88034FB6025
:107EB0007B68FA68C3F88024FB6818461437BD460F
:107EC0005DF8047B704780B483B000AF78607B6856
:107ED000D3F84C3518460C37BD465DF8047B704727
:107EE00080B483B000AF78607B68D3F83C35184627
:107EF0000C37BD465DF8047B704780B584B000AF99
:107F0000786039604FF48E717868FFF7F7FE3B6850
:107F10009B683A68928A92B213441B78FB733B6861
:107F20009B8A9BB201339AB23B689A82FB7B1946CB
:107F30007868FFF754FF00BF1037BD4680BD90B58D
:107F400083B000AF786039603B68DB7D002B08D1DF
:107F50004FF484717868FFF7D1FE7868FFF731FF3E
:107F600016E04FF484717868FFF7C8FE3B68DB6861
:107F70003A68527ED2B29C187868FFF722FF034617
:107F800023703B685B7EDBB20133DAB23B685A7622
:107F90000C37BD4690BD80B588B000AFF8600B4689
:107FA0007A60FB7201233B74FB7A3B767B687B61D2
:107FB000FB685B68FA68116807F110021046984781
:107FC00000BF2037BD4680BD80B586B000AF786069
:107FD0000B46FB7000233B72FB783B747B689B680D
:107FE000FB607B6800229A757B685B687A68116821
:107FF00007F108021046984700BF1837BD4680BDFC
:1080000080B588B000AF786039604FF4007178684F
:10801000FFF7A0FE0346002B38D04FF4927178682A
:10802000FFF783FE0346002B30D04FF4927178683F
:10803000FFF764FE4FF401717868FFF7A0FE3B681C
:108040009B7E83F00103DBB2002B03D00421786810
:10805000FFF7D5FE02233B727868FFF79FFE0346C9
:108060007B613B68DB7D3B743B68DB68FB603B68A6
:108070000022DA753B6800221A763B685B683A6832
:10808000116807F108021046984754E00421786807
:10809000FFF760FE0346002B4DD04FF484717868E3
:1080A000FFF743FE0346002B45D039687868FFF799
:1080B00046FF3B68DA7D3B685B7EDBB29A423AD191
:1080C0003B681B7E002B1AD03B68DB68FB613B687A
:1080D0005B7EFB763B681A7E3B68DA753B681A6903
:1080E0003B68DA603B6800221A763B6800225A76C9
:1080F000FB7EFA6919463868FFF74DFF1BE03B68C5
:108100009B7E83F00103DBB2002B03D0042178684F
:10811000FFF775FE4FF401717868FFF730FE3B689A
:108120000022DA753B685B7ED9B23B68DB681A4691
:108130003868FFF730FF4FF48E717868FFF7F5FD70
:108140000346002B1BD03B689B8A9AB23B689B7D01
:108150009BB29A4204D239687868FFF7CEFE0EE0EF
:108160004FF48E717868FFF7C9FD3B689B7D002B4B
:1081700005D03B689B7D19463868FFF725FF4FF413
:10818000A2717868FFF7D1FD0346002B1CD04FF495
:10819000A2717868FFF7B2FD3B689B7E002B03D08D
:1081A00000217868FFF72BFE3B68DB7D002B0BD0AE
:1081B0003B680022DA753B685B7ED9B23B68DB68BE
:1081C0001A463868FFF7E7FE00BF2037BD4680BD7E
:1081D00080B588B000AF786039604FF492717868EC
:1081E000FFF735FE0346002B23D04FF492717868D9
:1081F000FFF716FE02233B727868FFF751FE034635
:108200007B617868FFF76CFE0346DBB23B743B682A
:10821000DB68FB603B680022DA753B6800221A7657
:108220003B685B683A68116807F108021046984796
:108230003DE04FF488717868FFF709FE0346002B94
:1082400035D04FF488717868FFF7EAFD7868FFF75A
:1082500047FE0346FB773B68DB7DFA7F9A4226D1D7
:108260003B681B7E002B18D03B68DB68BB6120217C
:108270007868FFF701FE3B681A7E3B68DA753B6859
:108280001A693B68DA603B6800221A76FB7FBA699C
:1082900019463868FFF77FFE09E03B680022DA756F
:1082A0003B68DA68FB7F19463868FFF774FE4FF4C5
:1082B000A2717868FFF7CBFD0346002B16D04FF470
:1082C000A2717868FFF7ACFD3B68DB7D002B0DD019
:1082D0003B680022DA757868FFF702FE0346D9B2E0
:1082E0003B68DB681A463868FFF755FE4FF490711B
:1082F0007868FFF7ACFD0346002B11D04FF4907166
:108300007868FFF78DFD3B689B7D002B08D078686F
:10831000FFF7D9FD0346DBB219463868FFF754FE74
:1083200000BF2037BD4680BD80B500AF074B1B7F27
:10833000002B04D005490648FFF74AFF03E0034934
:108340000348FFF75DFE00BF80BD00BFD82B0020B3
:108350000020004080B485B000AF78600B467B8081
:108360007B887A68134400221A607B887A681344F9
:108370001B68FB60FB6800BF1437BD465DF8047BDB
:10838000704780B483B000AF78600B467B807B88F9
:108390007A6813441B68002B14BF01230023DBB24F
:1083A00018460C37BD465DF8047B704780B582B037
:1083B00000AF786039604FF488717868FFF7E1FFAB
:1083C0000346002B12D04FF488717868FFF7C2FF84
:1083D0003B685B7903F00403002B07D03B681B6804
:1083E000002B03D03B681B68012098474FF48A712B
:1083F0007868FFF7C6FF0346002B12D04FF48A714E
:108400007868FFF7A7FF3B685B7903F00803002B50
:1084100007D03B681B68002B03D03B681B68022019
:1084200098474FF48E717868FFF7ABFF0346002B37
:1084300012D04FF48E717868FFF78CFF3B685B7940
:1084400003F01003002B07D13B681B68002B03D0FF
:108450003B681B68002098474FF482717868FFF7EB
:1084600090FF0346002B0FD04FF482717868FFF71E
:1084700071FF3B6801221A713B681B68002B03D017
:108480003B681B680320984700BF0837BD4680BD86
:1084900080B500AF02490348FFF788FF00BF80BDE9
:1084A000F82B002000C0014080B485B000AF786098
:1084B0000B467B807B887A68134400221A607B8895
:1084C0007A6813441B68FB60FB6800BF1437BD4625
:1084D0005DF8047B704780B483B000AF78600B46D2
:1084E0007B807B887A6813441B68002B14BF0123B0
:1084F0000023DBB218460C37BD465DF8047B70479D
:1085000080B483B000AF786039607B68D3F804230F
:108510003B681340002B14BF01230023DBB2184635
:108520000C37BD465DF8047B704780B483B000AF64
:1085300078607B689BB250339BB29B009BB218461D
:108540000C37BD465DF8047B704780B483B000AF44
:1085500078604FF480327B6802FA03F318460C37D8
:10856000BD465DF8047B704780B586B000AFF8600B
:10857000B9601346FB710023FB7528E0FB7D1846AC
:10858000FFF7D3FF0346BB82FB7D1846FFF7DDFFF5
:108590003861BB8A1946F868FFF79DFF0346002B38
:1085A00012D03969F868FFF7ABFF0346002B0BD0F8
:1085B000BB8A1946F868FFF777FFBB681B68BA6883
:1085C0005168BA8A10469847FB7D0133FB75FA7DE6
:1085D000FB799A42D2D300BF1837BD4680BD000058
:1085E00080B500AF042203490348FFF7BDFF00BF79
:1085F00080BD00BF002C00200080004080B586B008
:1086000000AF3B4600221A605A609A60DA601B2372
:108610003B601A237B604FF0CD63BB6002233B734A
:108620003946002300220A48FEF79CFF78617B69E7
:108630003B613B69002B04D0064A3E213869FBF7B9
:10864000A9FE0348FFF708F800BF1837BD4680BDF4
:10865000C42100200849030080B582B000AF034662
:108660003A60FB710B46BB71B979F8793B6801221E
:1086700000F006F8034618460837BD4680BD0000E6
:1086800080B586B002AF3B600346FB710B46BB7101
:1086900013467B71BB79FF2B08D0BA1DF9790123F2
:1086A000009301230A48FFF7CFF9F8607B79F97945
:1086B0003A680748FFF7F0F9F860FB68002B0CBF39
:1086C00001230023DBB25BB218461037BD4680BDE4
:1086D000C421002080B586B002AF0346FB710B4673
:1086E000BB7113467B710223FB73BB79FF2B04D054
:1086F000BB793B737B797B7305E07B793B737B793B
:108700007B730123FB73F87B07F10C02F9790023DB
:10871000009303460648FFF797F90346002B0CBF6A
:1087200001230023DBB218461037BD4680BD00BFD1
:10873000C421002080B58EB002AF3B600346FB71C0
:108740000B46BB7113467B71BB793B73012387F8E2
:108750002F300EE097F82F305A1C87F82F2019463B
:108760003B685A1C3A601A7807F130030B4403F84F
:10877000242C97F82F207B7901339A42EADB7B790E
:108780000133D8B207F10C02F979002300930346B4
:108790000648FFF759F90346002B0CBF01230023BD
:1087A000DBB218463037BD4680BD00BFC421002073
:1087B00080B485B000AF7860254BFB607B68002BF0
:1087C00040D0244B1A68F9687B6800BF00BF00BF27
:1087D00000BF00BF00BF00BF00BF8A422FD000BF54
:1087E00000BF00BF00BF00BF00BF00BF00BF00BF91
:1087F00000BF00BF00BF00BF00BF00BF00BF00BF81
:1088000000BF00BF00BF00BF00BF00BF00BF00BF70
:1088100000BF00BF00BF00BF00BF00BF00BF00BF60
:1088200000BF00BF00BF00BF00BF00BF00BF00BF50
:1088300000BF00BF00BF00BF00BF00BF00BF013BC3
:10884000C3D17B6000BF1437BD465DF8047B704721
:108850000024F4002822002080B582B000AF7860A8
:108860007B684FF47A7202FB03F31846FFF7A0FF10
:1088700000BF0837BD4680BD80B582B000AF7860CC
:10888000184A7B68D36400F019FD00F045FD00F044
:1088900075FD00F031F8034683F00103DBB2002BD5
:1088A00001D0002319E000F04BF80346032B01D060
:1088B000002312E000F080FD01F0E0F900F02EF856
:1088C000034683F00103DBB2002B01D0002304E058
:1088D00000F00AF801F0A4FA012318460837BD4653
:1088E00080BD00BFCC21002080B500AF01F0F6F8BC
:1088F00001F04EFD00BF80BD80B500AF00F08CFCE4
:108900000346712B01D0002303E0034803F0E2FA91
:108910000123184680BD00BF2849030080B500AF81
:1089200000F08CFC0346482B01D0002303E00348F1
:1089300003F0D0FA0123184680BD00BF3C49030074
:10894000F0B5A1B000AF07F16C0300221A609A8065
:1089500007F1580300221A605A609A6007F14C032D
:1089600000221A605A609A6007F1400300221A60E0
:108970005A609A6007F1340300221A605A609A60C4
:10898000002387F87330002387F87F30A04B1B78D3
:10899000002219211846FFF79DFE9D4B1B780222ED
:1089A0001A211846FFF796FE994B187897F87330FE
:1089B000012202FA03F3DBB21A461B21FFF78AFEFB
:1089C000934B1B7802221D211846FFF783FE904B24
:1089D000187897F87330012202FA03F3DBB21A46D3
:1089E0001C21FFF777FE0023A7F87C3059E0884B65
:1089F000187807F16C0306223B21FFF741FEFB6C60
:108A000097F86C20120211B297F86D2012B20A4347
:108A100012B21344FB643B6D97F86E20120211B240
:108A200097F86F2012B20A4312B213443B657B6D74
:108A300097F87020120211B297F8712012B20A430F
:108A400012B213447B65724B187807F16C0306224F
:108A50004321FFF715FEBA6D97F86C301B021BB26D
:108A6000194697F86D300B431344BB65FA6D97F8C0
:108A70006E301B021BB2194697F86F300B4313443C
:108A8000FB653A6E97F870301B021BB2194697F8D7
:108A900071300B4313443B66B7F87C300133A7F8C1
:108AA0007C30B7F87C30C72BA1D90023A7F87A30E7
:108AB00030E0B7F87A10B7F87A309B0007F18002FF
:108AC000134453F8343C534A82FB03029211DB17E0
:108AD000D21A8B0007F180010B4443F8342CB7F80D
